{
  "contractName": "TestUniswap",
  "abi": [
    {
      "inputs": [
        {
          "internalType": "address",
          "name": "_tokenIn",
          "type": "address"
        },
        {
          "internalType": "address",
          "name": "_tokenOut",
          "type": "address"
        },
        {
          "internalType": "uint256",
          "name": "_amountIn",
          "type": "uint256"
        },
        {
          "internalType": "uint256",
          "name": "_amountOutMin",
          "type": "uint256"
        },
        {
          "internalType": "address",
          "name": "_to",
          "type": "address"
        }
      ],
      "name": "swap",
      "outputs": [],
      "stateMutability": "nonpayable",
      "type": "function"
    },
    {
      "inputs": [
        {
          "internalType": "address",
          "name": "_tokenIn",
          "type": "address"
        },
        {
          "internalType": "address",
          "name": "_tokenOut",
          "type": "address"
        },
        {
          "internalType": "uint256",
          "name": "_amountIn",
          "type": "uint256"
        }
      ],
      "name": "getAmountOutMin",
      "outputs": [
        {
          "internalType": "uint256",
          "name": "",
          "type": "uint256"
        }
      ],
      "stateMutability": "view",
      "type": "function"
    },
    {
      "inputs": [
        {
          "internalType": "address",
          "name": "tokenOut",
          "type": "address"
        },
        {
          "internalType": "uint256",
          "name": "amountOutMin",
          "type": "uint256"
        },
        {
          "internalType": "address",
          "name": "to",
          "type": "address"
        }
      ],
      "name": "swapFromETHToToken",
      "outputs": [],
      "stateMutability": "payable",
      "type": "function"
    },
    {
      "inputs": [
        {
          "internalType": "address",
          "name": "tokenIn",
          "type": "address"
        },
        {
          "internalType": "uint256",
          "name": "amountIn",
          "type": "uint256"
        },
        {
          "internalType": "uint256",
          "name": "amountOutMin",
          "type": "uint256"
        },
        {
          "internalType": "address",
          "name": "to",
          "type": "address"
        }
      ],
      "name": "swapFromTokenToETH",
      "outputs": [],
      "stateMutability": "nonpayable",
      "type": "function"
    }
  ],
  "bytecode": "0x608060405234801561001057600080fd5b506117b6806100206000396000f3fe60806040526004361061003f5760003560e01c80633c50eec1146100445780638a5d11ee14610081578063d5bcb9b5146100aa578063f1f3dc47146100d3575b600080fd5b34801561005057600080fd5b5061006b600480360381019061006691906111f5565b6100ef565b60405161007891906114da565b60405180910390f35b34801561008d57600080fd5b506100a860048036038101906100a3919061130a565b6105cd565b005b3480156100b657600080fd5b506100d160048036038101906100cc9190611244565b610925565b005b6100ed60048036038101906100e891906112bb565b610ee7565b005b6000606073c02aaa39b223fe8d0a0e5c4f27ead9083c756cc273ffffffffffffffffffffffffffffffffffffffff168573ffffffffffffffffffffffffffffffffffffffff161480610180575073c02aaa39b223fe8d0a0e5c4f27ead9083c756cc273ffffffffffffffffffffffffffffffffffffffff168473ffffffffffffffffffffffffffffffffffffffff16145b156102e657600267ffffffffffffffff8111156101c6577f4e487b7100000000000000000000000000000000000000000000000000000000600052604160045260246000fd5b6040519080825280602002602001820160405280156101f45781602001602082028036833780820191505090505b5090508481600081518110610232577f4e487b7100000000000000000000000000000000000000000000000000000000600052603260045260246000fd5b602002602001019073ffffffffffffffffffffffffffffffffffffffff16908173ffffffffffffffffffffffffffffffffffffffff168152505083816001815181106102a7577f4e487b7100000000000000000000000000000000000000000000000000000000600052603260045260246000fd5b602002602001019073ffffffffffffffffffffffffffffffffffffffff16908173ffffffffffffffffffffffffffffffffffffffff16815250506104cc565b600367ffffffffffffffff811115610327577f4e487b7100000000000000000000000000000000000000000000000000000000600052604160045260246000fd5b6040519080825280602002602001820160405280156103555781602001602082028036833780820191505090505b5090508481600081518110610393577f4e487b7100000000000000000000000000000000000000000000000000000000600052603260045260246000fd5b602002602001019073ffffffffffffffffffffffffffffffffffffffff16908173ffffffffffffffffffffffffffffffffffffffff168152505073c02aaa39b223fe8d0a0e5c4f27ead9083c756cc28160018151811061041c577f4e487b7100000000000000000000000000000000000000000000000000000000600052603260045260246000fd5b602002602001019073ffffffffffffffffffffffffffffffffffffffff16908173ffffffffffffffffffffffffffffffffffffffff16815250508381600281518110610491577f4e487b7100000000000000000000000000000000000000000000000000000000600052603260045260246000fd5b602002602001019073ffffffffffffffffffffffffffffffffffffffff16908173ffffffffffffffffffffffffffffffffffffffff16815250505b6000737a250d5630b4cf539739df2c5dacb4c659f2488d73ffffffffffffffffffffffffffffffffffffffff1663d06ca61f85846040518363ffffffff1660e01b815260040161051d9291906114f5565b60006040518083038186803b15801561053557600080fd5b505afa158015610549573d6000803e3d6000fd5b505050506040513d6000823e3d601f19601f82011682018060405250810190610572919061136d565b905080600183516105839190611661565b815181106105ba577f4e487b7100000000000000000000000000000000000000000000000000000000600052603260045260246000fd5b6020026020010151925050509392505050565b8373ffffffffffffffffffffffffffffffffffffffff166323b872dd3330866040518463ffffffff1660e01b815260040161060a9392919061147a565b602060405180830381600087803b15801561062457600080fd5b505af1158015610638573d6000803e3d6000fd5b505050506040513d601f19601f8201168201806040525081019061065c91906113ae565b508373ffffffffffffffffffffffffffffffffffffffff1663095ea7b3737a250d5630b4cf539739df2c5dacb4c659f2488d856040518363ffffffff1660e01b81526004016106ac9291906114b1565b602060405180830381600087803b1580156106c657600080fd5b505af11580156106da573d6000803e3d6000fd5b505050506040513d601f19601f820116820180604052508101906106fe91906113ae565b506060600267ffffffffffffffff811115610742577f4e487b7100000000000000000000000000000000000000000000000000000000600052604160045260246000fd5b6040519080825280602002602001820160405280156107705781602001602082028036833780820191505090505b50905084816000815181106107ae577f4e487b7100000000000000000000000000000000000000000000000000000000600052603260045260246000fd5b602002602001019073ffffffffffffffffffffffffffffffffffffffff16908173ffffffffffffffffffffffffffffffffffffffff168152505073c02aaa39b223fe8d0a0e5c4f27ead9083c756cc281600181518110610837577f4e487b7100000000000000000000000000000000000000000000000000000000600052603260045260246000fd5b602002602001019073ffffffffffffffffffffffffffffffffffffffff16908173ffffffffffffffffffffffffffffffffffffffff1681525050737a250d5630b4cf539739df2c5dacb4c659f2488d73ffffffffffffffffffffffffffffffffffffffff166318cbafe585858486426040518663ffffffff1660e01b81526004016108c6959493929190611571565b600060405180830381600087803b1580156108e057600080fd5b505af11580156108f4573d6000803e3d6000fd5b505050506040513d6000823e3d601f19601f8201168201806040525081019061091d919061136d565b505050505050565b8473ffffffffffffffffffffffffffffffffffffffff166323b872dd3330866040518463ffffffff1660e01b81526004016109629392919061147a565b602060405180830381600087803b15801561097c57600080fd5b505af1158015610990573d6000803e3d6000fd5b505050506040513d601f19601f820116820180604052508101906109b491906113ae565b508473ffffffffffffffffffffffffffffffffffffffff1663095ea7b3737a250d5630b4cf539739df2c5dacb4c659f2488d856040518363ffffffff1660e01b8152600401610a049291906114b1565b602060405180830381600087803b158015610a1e57600080fd5b505af1158015610a32573d6000803e3d6000fd5b505050506040513d601f19601f82011682018060405250810190610a5691906113ae565b50606073c02aaa39b223fe8d0a0e5c4f27ead9083c756cc273ffffffffffffffffffffffffffffffffffffffff168673ffffffffffffffffffffffffffffffffffffffff161480610ae6575073c02aaa39b223fe8d0a0e5c4f27ead9083c756cc273ffffffffffffffffffffffffffffffffffffffff168573ffffffffffffffffffffffffffffffffffffffff16145b15610c4c57600267ffffffffffffffff811115610b2c577f4e487b7100000000000000000000000000000000000000000000000000000000600052604160045260246000fd5b604051908082528060200260200182016040528015610b5a5781602001602082028036833780820191505090505b5090508581600081518110610b98577f4e487b7100000000000000000000000000000000000000000000000000000000600052603260045260246000fd5b602002602001019073ffffffffffffffffffffffffffffffffffffffff16908173ffffffffffffffffffffffffffffffffffffffff16815250508481600181518110610c0d577f4e487b7100000000000000000000000000000000000000000000000000000000600052603260045260246000fd5b602002602001019073ffffffffffffffffffffffffffffffffffffffff16908173ffffffffffffffffffffffffffffffffffffffff1681525050610e32565b600367ffffffffffffffff811115610c8d577f4e487b7100000000000000000000000000000000000000000000000000000000600052604160045260246000fd5b604051908082528060200260200182016040528015610cbb5781602001602082028036833780820191505090505b5090508581600081518110610cf9577f4e487b7100000000000000000000000000000000000000000000000000000000600052603260045260246000fd5b602002602001019073ffffffffffffffffffffffffffffffffffffffff16908173ffffffffffffffffffffffffffffffffffffffff168152505073c02aaa39b223fe8d0a0e5c4f27ead9083c756cc281600181518110610d82577f4e487b7100000000000000000000000000000000000000000000000000000000600052603260045260246000fd5b602002602001019073ffffffffffffffffffffffffffffffffffffffff16908173ffffffffffffffffffffffffffffffffffffffff16815250508481600281518110610df7577f4e487b7100000000000000000000000000000000000000000000000000000000600052603260045260246000fd5b602002602001019073ffffffffffffffffffffffffffffffffffffffff16908173ffffffffffffffffffffffffffffffffffffffff16815250505b737a250d5630b4cf539739df2c5dacb4c659f2488d73ffffffffffffffffffffffffffffffffffffffff166338ed173985858486426040518663ffffffff1660e01b8152600401610e87959493929190611571565b600060405180830381600087803b158015610ea157600080fd5b505af1158015610eb5573d6000803e3d6000fd5b505050506040513d6000823e3d601f19601f82011682018060405250810190610ede919061136d565b50505050505050565b6060600267ffffffffffffffff811115610f2a577f4e487b7100000000000000000000000000000000000000000000000000000000600052604160045260246000fd5b604051908082528060200260200182016040528015610f585781602001602082028036833780820191505090505b50905073c02aaa39b223fe8d0a0e5c4f27ead9083c756cc281600081518110610faa577f4e487b7100000000000000000000000000000000000000000000000000000000600052603260045260246000fd5b602002602001019073ffffffffffffffffffffffffffffffffffffffff16908173ffffffffffffffffffffffffffffffffffffffff1681525050838160018151811061101f577f4e487b7100000000000000000000000000000000000000000000000000000000600052603260045260246000fd5b602002602001019073ffffffffffffffffffffffffffffffffffffffff16908173ffffffffffffffffffffffffffffffffffffffff1681525050737a250d5630b4cf539739df2c5dacb4c659f2488d73ffffffffffffffffffffffffffffffffffffffff16637ff36ab534858486426040518663ffffffff1660e01b81526004016110ad9493929190611525565b6000604051808303818588803b1580156110c657600080fd5b505af11580156110da573d6000803e3d6000fd5b50505050506040513d6000823e3d601f19601f82011682018060405250810190611104919061136d565b5050505050565b600061111e611119846115fc565b6115cb565b9050808382526020820190508285602086028201111561113d57600080fd5b60005b8581101561116d578161115388826111e0565b845260208401935060208301925050600181019050611140565b5050509392505050565b6000813590506111868161173b565b92915050565b600082601f83011261119d57600080fd5b81516111ad84826020860161110b565b91505092915050565b6000815190506111c581611752565b92915050565b6000813590506111da81611769565b92915050565b6000815190506111ef81611769565b92915050565b60008060006060848603121561120a57600080fd5b600061121886828701611177565b935050602061122986828701611177565b925050604061123a868287016111cb565b9150509250925092565b600080600080600060a0868803121561125c57600080fd5b600061126a88828901611177565b955050602061127b88828901611177565b945050604061128c888289016111cb565b935050606061129d888289016111cb565b92505060806112ae88828901611177565b9150509295509295909350565b6000806000606084860312156112d057600080fd5b60006112de86828701611177565b93505060206112ef868287016111cb565b925050604061130086828701611177565b9150509250925092565b6000806000806080858703121561132057600080fd5b600061132e87828801611177565b945050602061133f878288016111cb565b9350506040611350878288016111cb565b925050606061136187828801611177565b91505092959194509250565b60006020828403121561137f57600080fd5b600082015167ffffffffffffffff81111561139957600080fd5b6113a58482850161118c565b91505092915050565b6000602082840312156113c057600080fd5b60006113ce848285016111b6565b91505092915050565b60006113e383836113ef565b60208301905092915050565b6113f881611695565b82525050565b61140781611695565b82525050565b600061141882611638565b6114228185611650565b935061142d83611628565b8060005b8381101561145e57815161144588826113d7565b975061145083611643565b925050600181019050611431565b5085935050505092915050565b611474816116d3565b82525050565b600060608201905061148f60008301866113fe565b61149c60208301856113fe565b6114a9604083018461146b565b949350505050565b60006040820190506114c660008301856113fe565b6114d3602083018461146b565b9392505050565b60006020820190506114ef600083018461146b565b92915050565b600060408201905061150a600083018561146b565b818103602083015261151c818461140d565b90509392505050565b600060808201905061153a600083018761146b565b818103602083015261154c818661140d565b905061155b60408301856113fe565b611568606083018461146b565b95945050505050565b600060a082019050611586600083018861146b565b611593602083018761146b565b81810360408301526115a5818661140d565b90506115b460608301856113fe565b6115c1608083018461146b565b9695505050505050565b6000604051905081810181811067ffffffffffffffff821117156115f2576115f161170c565b5b8060405250919050565b600067ffffffffffffffff8211156116175761161661170c565b5b602082029050602081019050919050565b6000819050602082019050919050565b600081519050919050565b6000602082019050919050565b600082825260208201905092915050565b600061166c826116d3565b9150611677836116d3565b92508282101561168a576116896116dd565b5b828203905092915050565b60006116a0826116b3565b9050919050565b60008115159050919050565b600073ffffffffffffffffffffffffffffffffffffffff82169050919050565b6000819050919050565b7f4e487b7100000000000000000000000000000000000000000000000000000000600052601160045260246000fd5b7f4e487b7100000000000000000000000000000000000000000000000000000000600052604160045260246000fd5b61174481611695565b811461174f57600080fd5b50565b61175b816116a7565b811461176657600080fd5b50565b611772816116d3565b811461177d57600080fd5b5056fea2646970667358221220614029507b3e2df73eebee80148a083a3e471fe6d3031aad13b9a552dba8a8ef64736f6c63430008000033",
  "immutableReferences": {},
  "source": "// SPDX-License-Identifier: MIT\npragma solidity >=0.4.22 <0.9.0;\n\nimport \"./interfaces/IERC20.sol\";\nimport \"./interfaces/Uniswap.sol\";\n\n\ncontract TestUniswap {\n  \n    address private constant UNISWAP_V2_ROUTER =\n      0x7a250d5630B4cF539739dF2C5dAcb4c659F2488D;\n  address private constant WETH = 0xC02aaA39b223FE8D0A0e5C4F27eAD9083C756Cc2;\n  \n\n  function swap(\n    address _tokenIn,\n    address _tokenOut,\n    uint _amountIn,\n    uint _amountOutMin,\n    address _to\n  ) external {\n    IERC20(_tokenIn).transferFrom(msg.sender, address(this), _amountIn);\n    IERC20(_tokenIn).approve(UNISWAP_V2_ROUTER, _amountIn);\n\n    address[] memory path;\n    if (_tokenIn == WETH || _tokenOut == WETH) {\n      path = new address[](2);\n      path[0] = _tokenIn;\n      path[1] = _tokenOut;\n    } else {\n      path = new address[](3);\n      path[0] = _tokenIn;\n      path[1] = WETH;\n      path[2] = _tokenOut;\n    }\n\n    IUniswapV2Router(UNISWAP_V2_ROUTER).swapExactTokensForTokens(\n      _amountIn,\n      _amountOutMin,\n      path,\n      _to,\n      block.timestamp\n    );\n  }\n\n  function getAmountOutMin(\n    address _tokenIn,\n    address _tokenOut,\n    uint _amountIn\n  ) external view returns (uint) {\n    address[] memory path;\n    if (_tokenIn == WETH || _tokenOut == WETH) {\n      path = new address[](2);\n      path[0] = _tokenIn;\n      path[1] = _tokenOut;\n    } else {\n      path = new address[](3);\n      path[0] = _tokenIn;\n      path[1] = WETH;\n      path[2] = _tokenOut;\n    }\n\n    // same length as path\n    uint[] memory amountOutMins =\n      IUniswapV2Router(UNISWAP_V2_ROUTER).getAmountsOut(_amountIn, path);\n\n    return amountOutMins[path.length - 1];\n  }\n\n  function swapFromETHToToken(\n    address tokenOut, //token trading out\n    uint256 amountOutMin, //min of token we want trade out\n    address to ) external payable{\n        address[] memory path;\n        path = new address[](2);\n        path[0]=WETH;\n        path[1]=tokenOut;\n        IUniswapV2Router(UNISWAP_V2_ROUTER).swapExactETHForTokens{value: msg.value}(amountOutMin,path,to,block.timestamp);\n    }\n\n  function swapFromTokenToETH(address tokenIn,\n    uint256 amountIn,\n    uint256 amountOutMin,\n    address to) external{\n        IERC20(tokenIn).transferFrom(msg.sender,address(this),amountIn);\n        IERC20(tokenIn).approve(UNISWAP_V2_ROUTER,amountIn);\n        address[] memory path;\n          path = new address[](2);\n          path[0] = tokenIn;\n          path[1] = WETH;\n          \n    IUniswapV2Router(UNISWAP_V2_ROUTER).swapExactTokensForETH(amountIn,amountOutMin,path, to, block.timestamp);\n        }\n}",
  "sourcePath": "/home/minhanh/blockchain/DEX/src/contracts/TestUniswap.sol",
  "compiler": {
    "name": "solc",
    "version": "0.8.0+commit.c7dfd78e.Emscripten.clang"
  },
  "schemaVersion": "3.4.7",
  "updatedAt": "2022-07-10T17:38:56.574Z",
  "devdoc": {
    "kind": "dev",
    "methods": {},
    "version": 1
  },
  "userdoc": {
    "kind": "user",
    "methods": {},
    "version": 1
  }
}